:020000020000fc
:0100000001fe
:0100010003fb
:0100020000fd
:0100030002fa
:0100040000fb
:0100050003f7
:0100060002f7
:0100070000f8
:0100080003f4
:0100090002f4
:01000a0002f3
:01000b0003f1
:01000c0002f1
:01000d0000f2
:01000e0002ef
:01000f0002ee
:0100100001ee
:0100110002ec
:0100120003ea
:0100130003e9
:0100140001ea
:0100150001e9
:0100160001e8
:0100170000e8
:0100180001e6
:0100190003e3
:01001a0000e5
:01001b0000e4
:01001c0000e3
:01001d0003df
:01001e0001e0
:01001f0000e0
:0100200002dd
:0100210000de
:0100220001dc
:0100230002da
:0100240002d9
:0100250002d8
:0100260002d7
:0100270003d5
:0100280001d6
:0100290003d3
:01002a0001d4
:01002b0000d4
:01002c0003d0
:01002d0003cf
:01002e0000d1
:01002f0001cf
:0100300000cf
:0100310003cb
:0100320003ca
:0100330001cb
:0100340000cb
:0100350003c7
:0100360001c8
:0100370001c7
:0100380002c5
:0100390002c4
:01003a0000c5
:01003b0001c3
:01003c0003c0
:01003d0001c1
:01003e0003be
:01003f0003bd
:0100400000bf
:0100410000be
:0100420002bb
:0100430003b9
:0100440000bb
:0100450000ba
:0100460001b8
:0100470002b6
:0100480001b6
:0100490001b5
:01004a0003b2
:01004b0003b1
:01004c0002b1
:01004d0000b2
:01004e0003ae
:01004f0000b0
:0100500002ad
:0100510001ad
:0100520001ac
:0100530002aa
:0100540000ab
:0100550000aa
:0100560001a8
:0100570000a8
:0100580001a6
:0100590000a6
:01005a0003a2
:01005b0000a4
:01005c0002a1
:01005d0000a2
:01005e00039e
:01005f0000a0
:01006000039c
:01006100039b
:01006200029b
:01006300009c
:010064000398
:010065000298
:010066000297
:010067000296
:010068000196
:010069000195
:01006a000194
:01006b000391
:01006c000390
:01006d000290
:01006e000190
:01006f00028e
:01007000018e
:01007100028c
:01007200008d
:010073000389
:010074000388
:010075000288
:010076000188
:010077000286
:010078000087
:010079000185
:01007a000382
:01007b000084
:01007c000182
:01007d000280
:01007e00027f
:01007f000080
:01008000037c
:01008100027c
:01008200007d
:01008300017b
:01008400017a
:010085000377
:010086000178
:010087000078
:010088000176
:010089000175
:01008a000372
:01008b000371
:01008c000073
:01008d000270
:01008e000071
:01008f00016f
:01009000036c
:01009100016d
:01009200026b
:01009300026a
:010094000368
:01009500006a
:010096000267
:010097000167
:010098000067
:010099000066
:01009a000164
:01009b000262
:01009c000360
:01009d000260
:01009e00025f
:01009f00015f
:0100a000035c
:0100a100015d
:0100a200025b
:0100a3000359
:0100a400005b
:0100a5000357
:0100a6000158
:0100a7000157
:0100a8000156
:0100a9000056
:0100aa000154
:0100ab000153
:0100ac000350
:0100ad000151
:0100ae000150
:0100af00034d
:0100b000004f
:0100b100024c
:0100b200004d
:0100b300024a
:0100b400004b
:0100b5000248
:0100b6000346
:0100b7000048
:0100b8000146
:0100b9000046
:0100ba000045
:0100bb000242
:0100bc000043
:0100bd000042
:0100be000041
:0100bf00013f
:0100c000003f
:0100c100023c
:0100c200033a
:0100c300013b
:0100c4000239
:0100c5000238
:0100c6000039
:0100c7000137
:0100c8000037
:0100c9000135
:0100ca000233
:0100cb000331
:0100cc000231
:0100cd000032
:0100ce000130
:0100cf00022e
:0100d000012e
:0100d100032b
:0100d200022b
:0100d300012b
:0100d4000229
:0100d5000129
:0100d6000128
:0100d7000226
:0100d8000225
:0100d9000224
:0100da000223
:0100db000123
:0100dc000320
:0100dd00031f
:0100de000021
:0100df00031d
:0100e000031c
:0100e100001e
:0100e200011c
:0100e300001c
:0100e400011a
:0100e500001a
:0100e6000118
:0100e7000216
:0100e8000215
:0100e9000214
:0100ea000015
:0100eb000212
:0100ec000211
:0100ed000210
:0100ee000110
:0100ef000010
:0100f000010e
:0100f100010d
:0100f200000d
:0100f300010b
:0100f4000308
:0100f5000208
:0100f6000306
:0100f7000107
:0100f8000106
:0100f9000303
:0100fa000302
:0100fb000301
:0100fc000201
:0100fd0003ff
:0100fe000100
:0100ff0001ff
:00000001FF
